55355511000090000037LU056224696600000000000001193900000000000000000000000000000000000001193900020240110EUR20230601000000000000991180000000000000000991180000000000000000082920000JPM EM MKTS INV GRADE BD "D" (EURHDG)                                           000000000000083759108PI0000000069        000000000000083020000000000000001000000000
55355511000090000032LU011788254700000000000772913200000000000000000000000000000000000772913200020240110USD20230601000000000194696840000000000000180676330000000000000000012998873JPM GLOBAL SOCIALLY RESPONSIBLE "D"                                             000000000000013002753PI0000000067        000000000000025190000000000000000927988000
55355511000090000032LU014738428200000000000006277000000000000000000000000000000000000006277000020240110EUR20230601000000000000994900000000000000000994900000000000000000015770000BGF ESG MULTI-ASSET "C2" (EUR)                                                  000000000000015931177PI0000000067        000000000000015850000000000000001000000000
55355511000090000032LU014740813100000000000016507000000000000000000000000000000000000016507000020240110USD20230601000000000006513660000000000000006044600000000000000000036264472BGF WORLD TECHNOLOGY "C2" (USD)                                                 000000000000036355924PI0000000067        000000000000039460000000000000000927988000
55355511000090000032LU025601378900000000000041489000000000000000000000000000000000000041489000020240110EUR20230601000000000087023180000000000000087023180000000000000000209670000EURIZON MANAGER SELECTION MS 70 "R"                                             000000000000209694136PI0000000067        000000000000209750000000000000001000000000
55355511000090000032LU033128967700000000000002138000000000000000000000000000000000000002138000020240110EUR20230601000000000000990960000000000000000990960000000000000000046310000BGF WORLD HEALTHSCIENCE "C2" (EUR)                                              000000000000046772685PI0000000067        000000000000046350000000000000001000000000
55355511000090000032LU055729107600000000000000870000000000000000000000000000000000000000870000020240110EUR20230601000000000001887290000000000000001887290000000000000000216685700SCHRODER ISF GBL SUST GW "A" (EURHDG)ACC                                        000000000000229885057PI0000000067        000000000000216930000000000000001000000000
55355511000090000032LU056224696600000000000045250500000000000000000000000000000000000045250500020240110EUR20230601000000000037566970000000000000037566970000000000000000082850000JPM EM MKTS INV GRADE BD "D" (EURHDG)                                           000000000000082872012PI0000000067        000000000000083020000000000000001000000000
55355511000090000032LU071418090700000000000000975200000000000000000000000000000000000000975200020240110EUR20230601000000000000992360000000000000000992360000000000000000101520000JPM GLOBAL DIVIDEND "D" (EURHDG) QD                                             000000000000102543068PI0000000067        000000000000101760000000000000001000000000
55355511000090000032LU166523770400000000000263059500000000000000000000000000000000000263059500020240110EUR20230601000000000026963600000000000000026963600000000000000000015666751M&G (LUX) GL LIST INF "A" (EUR)                                                 000000000000016312072PI0000000067        000000000000010250000000000000001000000000
55355511000090000032LU167071333500000000000015953200000000000000000000000000000000000015953200020240110EUR20230601000000000001930340000000000000001930340000000000000000011909966M&G (LUX) GLOBAL CORP "A-H" (EURHDG)                                            000000000000012536669PI0000000067        000000000000012100000000000000001000000000
55355511000090000032LU180523812500000000000006837000000000000000000000000000000000000006837000020240110EUR20230601000000000000994780000000000000000994780000000000000000014480000FIDELITY SUSTAINABLE "A" (EUR)                                                  000000000000014626298PI0000000067        000000000000014550000000000000001000000000
55355511000090000032LU188331998700000000000030038700000000000000000000000000000000000030038700020240110EUR20230601000000000002012590000000000000002012590000000000000000006610747AMUNDI FUNDS GLOBAL E "G" (EUR)                                                 000000000000006655425PI0000000067        000000000000006700000000000000001000000000
55355511000090000032LU188332986100000000000038142100000000000000000000000000000000000038142100020240110EUR20230601000000000002025350000000000000002025350000000000000000005214025AMUNDI FD GLB M-A CONSERV "G" (EUR)  ACC                                        000000000000005249022PI0000000067        000000000000005310000000000000001000000000
55355511000090000032LU208099361600000000000001925000000000000000000000000000000000000001925000020240110EUR20230601000000000001925960000000000000001925960000000000000000099869990SCHRODER ISF SUSTAINA "A" (EUR)                                                 000000000000103896103PI0000000067        000000000000100050000000000000001000000000
55355511000090000032LU209275643100000000000003108300000000000000000000000000000000000003108300020240110EUR20230601000000000002979310000000000000002979310000000000000000095549995JPM GLOBAL BOND OPPOR "D" (EURHDG)                                              000000000000096515780PI0000000067        000000000000095850000000000000001000000000
55355511000090000032LU225855986800000000000001702600000000000000000000000000000000000001702600020240110EUR20230601000000000000990910000000000000000990910000000000000000058150000UBS (LUX) KEY SEL CHI "P" (EURHDG)                                              000000000000058737225PI0000000067        000000000000058200000000000000001000000000
55355511000090000035LU014740813100000000000003027000000000000000000000000000000000000003027000020240110USD20230601000000000001194450000000000000001108440000000000000000032705840BGF WORLD TECHNOLOGY "C2" (USD)                                                 000000000000033036009PI0000000068        000000000000039460000000000000000927988000
55355511000090000035LU033128967700000000000002148000000000000000000000000000000000000002148000020240110EUR20230601000000000000995600000000000000000995600000000000000000046080000BGF WORLD HEALTHSCIENCE "C2" (EUR)                                              000000000000046554934PI0000000068        000000000000046350000000000000001000000000
55355511000090000035LU056224696600000000000001195500000000000000000000000000000000000001195500020240110EUR20230601000000000000992500000000000000000992500000000000000000082810000JPM EM MKTS INV GRADE BD "D" (EURHDG)                                           000000000000083647009PI0000000068        000000000000083020000000000000001000000000
55355511000090000035LU106284300500000000000008498000000000000000000000000000000000000008498000020240110EUR20230601000000000000977270000000000000000977270000000000000000011310000BGF EM MKT CORP BD "E2" (EURHDG)                                                000000000000011767474PI0000000068        000000000000011500000000000000001000000000
55355511000090000037LU011788254700000000000256813100000000000000000000000000000000000256813100020240110USD20230601000000000064691220000000000000060032680000000000000000013040619JPM GLOBAL SOCIALLY RESPONSIBLE "D"                                             000000000000013044505PI0000000069        000000000000025190000000000000000927988000
55355511000090000037LU014738428200000000000239859000000000000000000000000000000000000239859000020240110EUR20230601000000000038017650000000000000038017650000000000000000015630000BGF ESG MULTI-ASSET "C2" (EUR)                                                  000000000000015634185PI0000000069        000000000000015850000000000000001000000000
55355511000090000037LU014740813100000000000003022000000000000000000000000000000000000003022000020240110USD20230601000000000001192480000000000000001106610000000000000000032764243BGF WORLD TECHNOLOGY "C2" (USD)                                                 000000000000033090668PI0000000069        000000000000039460000000000000000927988000
55355511000090000037LU033128967700000000000002145000000000000000000000000000000000000002145000020240110EUR20230601000000000000994210000000000000000994210000000000000000046150000BGF WORLD HEALTHSCIENCE "C2" (EUR)                                              000000000000046620046PI0000000069        000000000000046350000000000000001000000000
55355511000090000037LU106284300500000000000008669000000000000000000000000000000000000008669000020240110EUR20230601000000000000996940000000000000000996940000000000000000011420000BGF EM MKT CORP BD "E2" (EURHDG)                                                000000000000011535355PI0000000069        000000000000011500000000000000001000000000
55355511000090000045LU011788254700000000000452009500000000000000000000000000000000000452009500020240110USD20230601000000000113861190000000000000105661820000000000000000022227415JPM GLOBAL SOCIALLY RESPONSIBLE "D"                                             000000000000022234045PI0000000076        000000000000025190000000000000000927988000
55355511000090000045LU014738428200000000000252334000000000000000000000000000000000000252334000020240110EUR20230601000000000039994940000000000000039994940000000000000000015642002BGF ESG MULTI-ASSET "C2" (EUR)                                                  000000000000015653855PI0000000076        000000000000015850000000000000001000000000
55355511000090000045LU014740813100000000000003021000000000000000000000000000000000000003021000020240110USD20230601000000000001192090000000000000001106250000000000000000032772585BGF WORLD TECHNOLOGY "C2" (USD)                                                 000000000000033101621PI0000000076        000000000000039460000000000000000927988000
55355511000090000045LU033128967700000000000002145000000000000000000000000000000000000002145000020240110EUR20230601000000000000994210000000000000000994210000000000000000046160000BGF WORLD HEALTHSCIENCE "C2" (EUR)                                              000000000000046620046PI0000000076        000000000000046350000000000000001000000000
55355511000090000045LU046425049600000000000001885300000000000000000000000000000000000001885300020240110EUR20230601000000000001981070000000000000001981070000000000000000105020000UBS (LUX) BOND FUND "P" (EURHDG) D                                              000000000000106080729PI0000000076        000000000000105080000000000000001000000000
55355511000090000045LU053423990900000000000013828400000000000000000000000000000000000013828400020240110EUR20230601000000000002007880000000000000002007880000000000000000014318300INVESCO GLB TOT RET EUR BD "A"                                                  000000000000014462989PI0000000076        000000000000014520000000000000001000000000
55355511000090000045LU056224696600000000000001193800000000000000000000000000000000000001193800020240110EUR20230601000000000000991090000000000000000991090000000000000000082930000JPM EM MKTS INV GRADE BD "D" (EURHDG)                                           000000000000083766124PI0000000076        000000000000083020000000000000001000000000
55355511000090000045LU077641408700000000000001487000000000000000000000000000000000000001487000020240110EUR20230601000000000001982170000000000000001982170000000000000000133145800SCHRODER ISF GB M-A BAL "A" (EUR) ACC                                           000000000000134498991PI0000000076        000000000000133300000000000000001000000000
55355511000090000045LU106284300500000000000008661000000000000000000000000000000000000008661000020240110EUR20230601000000000000996020000000000000000996020000000000000000011430000BGF EM MKT CORP BD "E2" (EURHDG)                                                000000000000011546010PI0000000076        000000000000011500000000000000001000000000
55355511000090000045LU194168233500000000000078934600000000000000000000000000000000000078934600020240110EUR20230601000000000075777220000000000000075777220000000000000000094990000AF MULTI-ASSET SUST FTR "G" (EUR) ACC                                           000000000000095015341PI0000000076        000000000000096000000000000000001000000000
55355511000090000040LU007323425300000000000002305000000000000000000000000000000000000002305000020240110EUR20230601000000000000994610000000000000000994610000000000000000042950000EURO STRATEGIC BOND "A" A                                                       000000000000043383947PI0000000072        000000000000043150000000000000001000000000
55355511000090000040LU011788254700000000000256812900000000000000000000000000000000000256812900020240110USD20230601000000000064691170000000000000060032630000000000000000013040619JPM GLOBAL SOCIALLY RESPONSIBLE "D"                                             000000000000013044516PI0000000072        000000000000025190000000000000000927988000
55355511000090000040LU018989301800000000000004570000000000000000000000000000000000000004570000020240110USD20230601000000000002156130000000000000002000860000000000000000043333094SCHRODER ISF GLB HIGH YIELD "A"                                                 000000000000043763676PI0000000072        000000000000047180000000000000000927988000
55355511000090000040LU033128967700000000000081147000000000000000000000000000000000000081147000020240110EUR20230601000000000037611630000000000000037611630000000000000000046200000BGF WORLD HEALTHSCIENCE "C2" (EUR)                                              000000000000046212429PI0000000072        000000000000046350000000000000001000000000
55355511000090000040LU055729107600000000000000914000000000000000000000000000000000000000914000020240110EUR20230601000000000001982740000000000000001982740000000000000000216752850SCHRODER ISF GBL SUST GW "A" (EURHDG)ACC                                        000000000000218818380PI0000000072        000000000000216930000000000000001000000000
55355511000090000040LU067150309100000000000001794000000000000000000000000000000000000001794000020240110EUR20230601000000000001981470000000000000001981470000000000000000110350000SCH ISF US DLL BD "A" (EURHDG) INC QF                                           000000000000111482720PI0000000072        000000000000110450000000000000001000000000
55355511000090000040LU098748741900000000000456027000000000000000000000000000000000000456027000020240110EUR20230601000000000038534280000000000000038534280000000000000000008221000FIDELITY GLB MULT ASST IN "A" (EURHDG)DQ                                        000000000000008223197PI0000000072        000000000000008450000000000000001000000000
55355511000090000040LU166523770400000000000374900000000000000000000000000000000000000374900000020240110EUR20230601000000000038427250000000000000038427250000000000000000010000000M&G (LUX) GL LIST INF "A" (EUR)                                                 000000000000010002667PI0000000072        000000000000010250000000000000001000000000
55355511000090000040LU167071333500000000000008243200000000000000000000000000000000000008243200020240110EUR20230601000000000000997430000000000000000997430000000000000000012010000M&G (LUX) GLOBAL CORP "A-H" (EURHDG)                                            000000000000012131211PI0000000072        000000000000012100000000000000001000000000
55355511000090000040LU167071961300000000000006923100000000000000000000000000000000000006923100020240110EUR20230601000000000003156930000000000000003156930000000000000000014300000M&G (LUX) GLOBAL MACR "A" (EUR)                                                 000000000000014444396PI0000000072        000000000000045600000000000000001000000000
55355511000090000040LU180523812500000000000233380000000000000000000000000000000000000233380000020240110EUR20230601000000000033956790000000000000033956790000000000000000014350000FIDELITY SUSTAINABLE "A" (EUR)                                                  000000000000014354272PI0000000072        000000000000014550000000000000001000000000
55355511000090000040LU201429323200000000000010481700000000000000000000000000000000000010481700020240110USD20230601000000000001090100000000000000001011600000000000000000009445083INVESCO EMERGING MARK "A" (USD) B                                               000000000000009540437PI0000000072        000000000000010400000000000000000927988000
55355511000090000040LU208099361600000000000000990000000000000000000000000000000000000000990000020240110EUR20230601000000000000990500000000000000000990500000000000000000099970000SCHRODER ISF SUSTAINA "A" (EUR)                                                 000000000000101010101PI0000000072        000000000000100050000000000000001000000000
55355511000090000040LU209275643100000000000001035100000000000000000000000000000000000001035100020240110EUR20230601000000000000992140000000000000000992140000000000000000095640000JPM GLOBAL BOND OPPOR "D" (EURHDG)                                              000000000000096609023PI0000000072        000000000000095850000000000000001000000000
55355511000090000040LU221903803600000000000270955000000000000000000000000000000000000270955000020240110EUR20230601000000000033733900000000000000033733900000000000000000012360000FIDELITY GLOBAL EQUIT "A" (EUR) D                                               000000000000012363676PI0000000072        000000000000012450000000000000001000000000
55355511000090000038LU007323425300000000000002303400000000000000000000000000000000000002303400020240110EUR20230601000000000000993920000000000000000993920000000000000000042980000EURO STRATEGIC BOND "A" A                                                       000000000000043414083PI0000000073        000000000000043150000000000000001000000000
55355511000090000038LU011788254700000000000231509300000000000000000000000000000000000231509300020240110USD20230601000000000058317190000000000000054117650000000000000000013509159JPM GLOBAL SOCIALLY RESPONSIBLE "D"                                             000000000000013516559PI0000000073        000000000000025190000000000000000927988000
55355511000090000038LU025601378900000000000015977300000000000000000000000000000000000015977300020240110EUR20230601000000000033512390000000000000033512390000000000000000209610000EURIZON MANAGER SELECTION MS 70 "R"                                             000000000000209672472PI0000000073        000000000000209750000000000000001000000000
55355511000090000038LU053423990900000000000006914300000000000000000000000000000000000006914300020240110EUR20230601000000000001003960000000000000001003960000000000000000014318300INVESCO GLB TOT RET EUR BD "A"                                                  000000000000014462780PI0000000073        000000000000014520000000000000001000000000
55355511000090000038LU055729107600000000000043297000000000000000000000000000000000000043297000020240110EUR20230601000000000093924180000000000000093924180000000000000000216926094SCHRODER ISF GBL SUST GW "A" (EURHDG)ACC                                        000000000000216994904PI0000000073        000000000000216930000000000000001000000000
55355511000090000038LU077641408700000000000000743000000000000000000000000000000000000000743000020240110EUR20230601000000000000990420000000000000000990420000000000000000133300000SCHRODER ISF GB M-A BAL "A" (EUR) ACC                                           000000000000134589502PI0000000073        000000000000133300000000000000001000000000
55355511000090000038LU098748741900000000000012028000000000000000000000000000000000000012028000020240110EUR20230601000000000001016370000000000000001016370000000000000000008231000FIDELITY GLB MULT ASST IN "A" (EURHDG)DQ                                        000000000000008313934PI0000000073        000000000000008450000000000000001000000000
55355511000090000038LU166523770400000000000609065200000000000000000000000000000000000609065200020240110EUR20230601000000000062429180000000000000062429180000000000000000012310672M&G (LUX) GL LIST INF "A" (EUR)                                                 000000000000012313952PI0000000073        000000000000010250000000000000001000000000
55355511000090000038LU167071333500000000000008291500000000000000000000000000000000000008291500020240110EUR20230601000000000001003270000000000000001003270000000000000000011940000M&G (LUX) GLOBAL CORP "A-H" (EURHDG)                                            000000000000012060543PI0000000073        000000000000012100000000000000001000000000
55355511000090000038LU194168233500000000000001031300000000000000000000000000000000000001031300020240110EUR20230601000000000000990050000000000000000990050000000000000000096000000AF MULTI-ASSET SUST FTR "G" (EUR) ACC                                           000000000000096969844PI0000000073        000000000000096000000000000000001000000000
55355511000090000038LU208099361600000000000001981000000000000000000000000000000000000001981000020240110EUR20230601000000000001981990000000000000001981990000000000000000099974962SCHRODER ISF SUSTAINA "A" (EUR)                                                 000000000000100959111PI0000000073        000000000000100050000000000000001000000000
55355511000090000038LU209275643100000000000002068800000000000000000000000000000000000002068800020240110EUR20230601000000000001982940000000000000001982940000000000000000095709797JPM GLOBAL BOND OPPOR "D" (EURHDG)                                              000000000000096674400PI0000000073        000000000000095850000000000000001000000000
55355511000090000041LU007323425300000000000425333300000000000000000000000000000000000425333300020240110EUR20230601000000000183531320000000000000183531320000000000000000042910000EURO STRATEGIC BOND "A" A                                                       000000000000042910000PI0000000074        000000000000043150000000000000001000000000
55355511000090000041LU194168233500000000000233511100000000000000000000000000000000000233511100020240110EUR20230601000000000224170660000000000000224170660000000000000000094900000AF MULTI-ASSET SUST FTR "G" (EUR) ACC                                           000000000000094900000PI0000000074        000000000000096000000000000000001000000000
55355511000090000042LU014738428200000000000006278000000000000000000000000000000000000006278000020240110EUR20230601000000000000995060000000000000000995060000000000000000015770000BGF ESG MULTI-ASSET "C2" (EUR)                                                  000000000000015928640PI0000000075        000000000000015850000000000000001000000000
55355511000090000042LU014740813100000000000016508000000000000000000000000000000000000016508000020240110USD20230601000000000006514060000000000000006044970000000000000000036264437BGF WORLD TECHNOLOGY "C2" (USD)                                                 000000000000036294347PI0000000075        000000000000039460000000000000000927988000
55355511000090000042LU025601378900000000000041489000000000000000000000000000000000000041489000020240110EUR20230601000000000087023180000000000000087023180000000000000000209670000EURIZON MANAGER SELECTION MS 70 "R"                                             000000000000209694136PI0000000075        000000000000209750000000000000001000000000
55355511000090000042LU033128967700000000000002138000000000000000000000000000000000000002138000020240110EUR20230601000000000000990960000000000000000990960000000000000000046310000BGF WORLD HEALTHSCIENCE "C2" (EUR)                                              000000000000046772685PI0000000075        000000000000046350000000000000001000000000
55355511000090000042LU088362306700000000000000976500000000000000000000000000000000000000976500020240110EUR20230601000000000000990370000000000000000990370000000000000000101380000EURIZON OPPORTUNITA OBBLIGAZN FLESS "RD"                                        000000000000102406554PI0000000075        000000000000101420000000000000001000000000
55355511000090000042LU180523812500000000000006837000000000000000000000000000000000000006837000020240110EUR20230601000000000000994780000000000000000994780000000000000000014480000FIDELITY SUSTAINABLE "A" (EUR)                                                  000000000000014626298PI0000000075        000000000000014550000000000000001000000000
55355511000090000042LU188331998700000000000015037600000000000000000000000000000000000015037600020240110EUR20230601000000000001007520000000000000001007520000000000000000006650000AMUNDI FUNDS GLOBAL E "G" (EUR)                                                 000000000000006649997PI0000000075        000000000000006700000000000000001000000000
55355511000090000042LU188332986100000000000018821300000000000000000000000000000000000018821300020240110EUR20230601000000000000999410000000000000000999410000000000000000005260000AMUNDI FD GLB M-A CONSERV "G" (EUR)  ACC                                        000000000000005286432PI0000000075        000000000000005310000000000000001000000000
55355511000090000042LU225855986800000000000001702500000000000000000000000000000000000001702500020240110EUR20230601000000000000990860000000000000000990860000000000000000058150000UBS (LUX) KEY SEL CHI "P" (EURHDG)                                              000000000000058737408PI0000000075        000000000000058200000000000000001000000000
55355511000090000046LU011788254700000000000306342600000000000000000000000000000000000306342600020240110USD20230601000000000077167700000000000000071610700000000000000000021864403JPM GLOBAL SOCIALLY RESPONSIBLE "D"                                             000000000000021870937PI0000000077        000000000000025190000000000000000927988000
55355511000090000046LU055729107600000000000000457000000000000000000000000000000000000000457000020240110EUR20230601000000000000991370000000000000000991370000000000000000216750000SCHRODER ISF GBL SUST GW "A" (EURHDG)ACC                                        000000000000218818380PI0000000077        000000000000216930000000000000001000000000
55355511000090000046LU056224696600000000000045201400000000000000000000000000000000000045201400020240110EUR20230601000000000037526200000000000000037526200000000000000000082940000JPM EM MKTS INV GRADE BD "D" (EURHDG)                                           000000000000082962032PI0000000077        000000000000083020000000000000001000000000
55355511000090000046LU071418090700000000000000974700000000000000000000000000000000000000974700020240110EUR20230601000000000000991850000000000000000991850000000000000000101570000JPM GLOBAL DIVIDEND "D" (EURHDG) QD                                             000000000000102595670PI0000000077        000000000000101760000000000000001000000000
55355511000090000046LU088362306700000000000000976900000000000000000000000000000000000000976900020240110EUR20230601000000000000990770000000000000000990770000000000000000101340000EURIZON OPPORTUNITA OBBLIGAZN FLESS "RD"                                        000000000000102364622PI0000000077        000000000000101420000000000000001000000000
55355511000090000046LU166523770400000000000374525500000000000000000000000000000000000374525500020240110EUR20230601000000000038388860000000000000038388860000000000000000010010000M&G (LUX) GL LIST INF "A" (EUR)                                                 000000000000010012669PI0000000077        000000000000010250000000000000001000000000
55355511000090000046LU167071333500000000000008236300000000000000000000000000000000000008236300020240110EUR20230601000000000000996590000000000000000996590000000000000000012020000M&G (LUX) GLOBAL CORP "A-H" (EURHDG)                                            000000000000012141374PI0000000077        000000000000012100000000000000001000000000
55355511000090000046LU188331998700000000000014954700000000000000000000000000000000000014954700020240110EUR20230601000000000001001960000000000000001001960000000000000000006620000AMUNDI FUNDS GLOBAL E "G" (EUR)                                                 000000000000006686860PI0000000077        000000000000006700000000000000001000000000
55355511000090000046LU188332986100000000000018965600000000000000000000000000000000000018965600020240110EUR20230601000000000001007070000000000000001007070000000000000000005220000AMUNDI FD GLB M-A CONSERV "G" (EUR)  ACC                                        000000000000005272704PI0000000077        000000000000005310000000000000001000000000
55355511000090000046LU208099361600000000000000990000000000000000000000000000000000000000990000020240110EUR20230601000000000000990500000000000000000990500000000000000000099980000SCHRODER ISF SUSTAINA "A" (EUR)                                                 000000000000101010101PI0000000077        000000000000100050000000000000001000000000
55355511000090000046LU209275643100000000000001034900000000000000000000000000000000000001034900020240110EUR20230601000000000000991950000000000000000991950000000000000000095660000JPM GLOBAL BOND OPPOR "D" (EURHDG)                                              000000000000096627693PI0000000077        000000000000095850000000000000001000000000
55355511000090000048LU007323425300000000000045357400000000000000000000000000000000000045357400020240110EUR20230601000000000019571720000000000000019571720000000000000000042980000EURO STRATEGIC BOND "A" A                                                       000000000000042999571PI0000000079        000000000000043150000000000000001000000000
55355511000090000048LU011788254700000000000091333700000000000000000000000000000000000091333700020240110USD20230601000000000023006960000000000000021350180000000000000000022981652JPM GLOBAL SOCIALLY RESPONSIBLE "D"                                             000000000000022992608PI0000000079        000000000000025190000000000000000927988000
55355511000090000048LU014738428200000000000006278000000000000000000000000000000000000006278000020240110EUR20230601000000000000995060000000000000000995060000000000000000015770000BGF ESG MULTI-ASSET "C2" (EUR)                                                  000000000000015928640PI0000000079        000000000000015850000000000000001000000000
55355511000090000048LU025601378900000000000137372300000000000000000000000000000000000137372300020240110EUR20230601000000000288138400000000000000288138400000000000000000209619996EURIZON MANAGER SELECTION MS 70 "R"                                             000000000000209649252PI0000000079        000000000000209750000000000000001000000000
55355511000090000048LU053423990900000000000006914200000000000000000000000000000000000006914200020240110EUR20230601000000000001003940000000000000001003940000000000000000014318300INVESCO GLB TOT RET EUR BD "A"                                                  000000000000014462989PI0000000079        000000000000014520000000000000001000000000
55355511000090000048LU055729107600000000000000457000000000000000000000000000000000000000457000020240110EUR20230601000000000000991370000000000000000991370000000000000000216770000SCHRODER ISF GBL SUST GW "A" (EURHDG)ACC                                        000000000000218818380PI0000000079        000000000000216930000000000000001000000000
55355511000090000048LU088362306700000000000000976800000000000000000000000000000000000000976800020240110EUR20230601000000000000990670000000000000000990670000000000000000101350000EURIZON OPPORTUNITA OBBLIGAZN FLESS "RD"                                        000000000000102375102PI0000000079        000000000000101420000000000000001000000000
55355511000090000048LU106284300500000000000025962000000000000000000000000000000000000025962000020240110EUR20230601000000000002985630000000000000002985630000000000000000011440000BGF EM MKT CORP BD "E2" (EURHDG)                                                000000000000011555350PI0000000079        000000000000011500000000000000001000000000
55355511000090000048LU167071961300000000000001429900000000000000000000000000000000000001429900020240110EUR20230601000000000000652030000000000000000652030000000000000000014310000M&G (LUX) GLOBAL MACR "A" (EUR)                                                 000000000000014454417PI0000000079        000000000000045600000000000000001000000000
55355511000090000048LU188332986100000000000075681600000000000000000000000000000000000075681600020240110EUR20230601000000000004018690000000000000004018690000000000000000005237847AMUNDI FD GLB M-A CONSERV "G" (EUR)  ACC                                        000000000000005280341PI0000000079        000000000000005310000000000000001000000000
55355511000090000048LU225855986800000000000006813000000000000000000000000000000000000006813000020240110EUR20230601000000000003965170000000000000003965170000000000000000058127994UBS (LUX) KEY SEL CHI "P" (EURHDG)                                              000000000000058715268PI0000000079        000000000000058200000000000000001000000000
55355511000090000052LU011788254700000000000013114700000000000000000000000000000000000013114700020240110USD20230601000000000003303590000000000000003065690000000000000000000000000JPM GLOBAL SOCIALLY RESPONSIBLE "D"                                             000000000000000000000PI0000000085        000000000000025190000000000000000927988000
55355511000090000049LU209275643100000000000001032900000000000000000000000000000000000001032900020240110EUR20230601000000000000990030000000000000000990030000000000000000000000000JPM GLOBAL BOND OPPOR "D" (EURHDG)                                              000000000000000000000PI0000000082        000000000000095850000000000000001000000000
55355511000090000052LU209275643100000000000001032900000000000000000000000000000000000001032900020240110EUR20230601000000000000990030000000000000000990030000000000000000000000000JPM GLOBAL BOND OPPOR "D" (EURHDG)                                              000000000000000000000PI0000000085        000000000000095850000000000000001000000000
55355511000090000049LU011788254700000000000013114700000000000000000000000000000000000013114700020240110USD20230601000000000003303590000000000000003065690000000000000000000000000JPM GLOBAL SOCIALLY RESPONSIBLE "D"                                             000000000000000000000PI0000000082        000000000000025190000000000000000927988000
55355511000090000022LU098748741900000000000047348400000000000000000000000000000000000047348400020240110EUR20230601000000000004000940000000000000004000940000000000000000000000000FIDELITY GLB MULT ASST IN "A" (EURHDG)DQ                                        000000000000000000000PI0000000063        000000000000008450000000000000001000000000
55355511000090000052LU208099361600000000000009897000000000000000000000000000000000000009897000020240110EUR20230601000000000009901950000000000000009901950000000000000000000000000SCHRODER ISF SUSTAINA "A" (EUR)                                                 000000000000000000000PI0000000085        000000000000100050000000000000001000000000
55355511000090000049LU077641408700000000000000743000000000000000000000000000000000000000743000020240110EUR20230601000000000000990420000000000000000990420000000000000000000000000SCHRODER ISF GB M-A BAL "A" (EUR) ACC                                           000000000000000000000PI0000000082        000000000000133300000000000000001000000000
55355511000090000049LU055729107600000000000042842000000000000000000000000000000000000042842000020240110EUR20230601000000000092937150000000000000092937150000000000000000000000000SCHRODER ISF GBL SUST GW "A" (EURHDG)ACC                                        000000000000000000000PI0000000082        000000000000216930000000000000001000000000
55355511000090000023LU016805033300000000000044234700000000000000000000000000000000000044234700020240110EUR20230601000000000004494250000000000000004494250000000000000000000000000FIDELITY EURO BOND "A" DM                                                       000000000000000000000PI0000000061        000000000000010160000000000000001000000000
55355511000090000049LU208099361600000000000000989000000000000000000000000000000000000000989000020240110EUR20230601000000000000989490000000000000000989490000000000000000000000000SCHRODER ISF SUSTAINA "A" (EUR)                                                 000000000000000000000PI0000000082        000000000000100050000000000000001000000000
55355511000090000052LU055729107600000000000042840000000000000000000000000000000000000042840000020240110EUR20230601000000000092932810000000000000092932810000000000000000000000000SCHRODER ISF GBL SUST GW "A" (EURHDG)ACC                                        000000000000000000000PI0000000085        000000000000216930000000000000001000000000
55355511000090000052LU194168233500000000000001031300000000000000000000000000000000000001031300020240110EUR20230601000000000000990050000000000000000990050000000000000000000000000AF MULTI-ASSET SUST FTR "G" (EUR) ACC                                           000000000000000000000PI0000000085        000000000000096000000000000000001000000000
55355511000090000052LU077641408700000000000000743000000000000000000000000000000000000000743000020240110EUR20230601000000000000990420000000000000000990420000000000000000000000000SCHRODER ISF GB M-A BAL "A" (EUR) ACC                                           000000000000000000000PI0000000085        000000000000133300000000000000001000000000
55355511000090000049LU194168233500000000000001031200000000000000000000000000000000000001031200020240110EUR20230601000000000000989950000000000000000989950000000000000000000000000AF MULTI-ASSET SUST FTR "G" (EUR) ACC                                           000000000000000000000PI0000000082        000000000000096000000000000000001000000000